{
  "address": "0xe7f1725E7734CE288F8367e1Bb143E90bb3F0512",
  "abi": [
    {
      "inputs": [
        {
          "internalType": "address",
          "name": "priceFeedAddress",
          "type": "address"
        }
      ],
      "stateMutability": "nonpayable",
      "type": "constructor"
    },
    {
      "inputs": [],
      "name": "FundMe__NotEnoughETH",
      "type": "error"
    },
    {
      "inputs": [],
      "name": "FundMe__NotOwner",
      "type": "error"
    },
    {
      "stateMutability": "payable",
      "type": "fallback"
    },
    {
      "inputs": [],
      "name": "MINIMUN_USD",
      "outputs": [
        {
          "internalType": "uint256",
          "name": "",
          "type": "uint256"
        }
      ],
      "stateMutability": "view",
      "type": "function"
    },
    {
      "inputs": [],
      "name": "Withdraw",
      "outputs": [],
      "stateMutability": "nonpayable",
      "type": "function"
    },
    {
      "inputs": [],
      "name": "fund",
      "outputs": [],
      "stateMutability": "payable",
      "type": "function"
    },
    {
      "inputs": [
        {
          "internalType": "address",
          "name": "funder",
          "type": "address"
        }
      ],
      "name": "getAmountFunded",
      "outputs": [
        {
          "internalType": "uint256",
          "name": "",
          "type": "uint256"
        }
      ],
      "stateMutability": "view",
      "type": "function"
    },
    {
      "inputs": [
        {
          "internalType": "uint256",
          "name": "index",
          "type": "uint256"
        }
      ],
      "name": "getFunder",
      "outputs": [
        {
          "internalType": "address",
          "name": "",
          "type": "address"
        }
      ],
      "stateMutability": "view",
      "type": "function"
    },
    {
      "inputs": [],
      "name": "getOwner",
      "outputs": [
        {
          "internalType": "address",
          "name": "",
          "type": "address"
        }
      ],
      "stateMutability": "view",
      "type": "function"
    },
    {
      "inputs": [],
      "name": "getPriceFeed",
      "outputs": [
        {
          "internalType": "contract AggregatorV3Interface",
          "name": "",
          "type": "address"
        }
      ],
      "stateMutability": "view",
      "type": "function"
    },
    {
      "stateMutability": "payable",
      "type": "receive"
    }
  ],
  "transactionHash": "0x70a69aed8ad80efa7e0e32fa35267e44b5fc1b454fe55116280d7c9d1ae0a4b6",
  "args": [
    "0x5FbDB2315678afecb367f032d93F642f64180aa3"
  ],
  "numDeployments": 1,
  "solcInputHash": "972d938f572c2df9f50c34071e07a40a",
  "bytecode": "0x60a060405234801561001057600080fd5b50604051610e53380380610e5383398181016040528101906100329190610110565b3373ffffffffffffffffffffffffffffffffffffffff1660808173ffffffffffffffffffffffffffffffffffffffff168152505080600260006101000a81548173ffffffffffffffffffffffffffffffffffffffff021916908373ffffffffffffffffffffffffffffffffffffffff1602179055505061013d565b600080fd5b600073ffffffffffffffffffffffffffffffffffffffff82169050919050565b60006100dd826100b2565b9050919050565b6100ed816100d2565b81146100f857600080fd5b50565b60008151905061010a816100e4565b92915050565b600060208284031215610126576101256100ad565b5b6000610134848285016100fb565b91505092915050565b608051610cf461015f60003960008181610322015261058d0152610cf46000f3fe6080604052600436106100745760003560e01c80639e87a5cd1161004e5780639e87a5cd146100fa578063a48b455514610125578063b60d428814610162578063d7b4750c1461016c57610083565b80632100f4791461008d57806357ea89b6146100b8578063893d20e8146100cf57610083565b36610083576100816101a9565b005b61008b6101a9565b005b34801561009957600080fd5b506100a2610313565b6040516100af91906107ed565b60405180910390f35b3480156100c457600080fd5b506100cd610320565b005b3480156100db57600080fd5b506100e4610589565b6040516100f19190610849565b60405180910390f35b34801561010657600080fd5b5061010f6105b1565b60405161011c91906108c3565b60405180910390f35b34801561013157600080fd5b5061014c6004803603810190610147919061090f565b6105db565b60405161015991906107ed565b60405180910390f35b61016a6101a9565b005b34801561017857600080fd5b50610193600480360381019061018e9190610968565b610624565b6040516101a09190610849565b60405180910390f35b6802b5e3af16b18800006101e8600260009054906101000a900473ffffffffffffffffffffffffffffffffffffffff163461066b90919063ffffffff16565b1015610220576040517fb514e4ed00000000000000000000000000000000000000000000000000000000815260040160405180910390fd5b6000339080600181540180825580915050600190039060005260206000200160009091909190916101000a81548173ffffffffffffffffffffffffffffffffffffffff021916908373ffffffffffffffffffffffffffffffffffffffff16021790555034600160003373ffffffffffffffffffffffffffffffffffffffff1673ffffffffffffffffffffffffffffffffffffffff168152602001908152602001600020546102ce91906109c4565b600160003373ffffffffffffffffffffffffffffffffffffffff1673ffffffffffffffffffffffffffffffffffffffff16815260200190815260200160002081905550565b6802b5e3af16b188000081565b7f000000000000000000000000000000000000000000000000000000000000000073ffffffffffffffffffffffffffffffffffffffff163373ffffffffffffffffffffffffffffffffffffffff16146103a5576040517f579610db00000000000000000000000000000000000000000000000000000000815260040160405180910390fd5b60008080548060200260200160405190810160405280929190818152602001828054801561042857602002820191906000526020600020905b8160009054906101000a900473ffffffffffffffffffffffffffffffffffffffff1673ffffffffffffffffffffffffffffffffffffffff16815260200190600101908083116103de575b5050505050905060005b81518110156104ae57600060016000848481518110610454576104536109f8565b5b602002602001015173ffffffffffffffffffffffffffffffffffffffff1673ffffffffffffffffffffffffffffffffffffffff168152602001908152602001600020819055506001816104a791906109c4565b9050610432565b50600067ffffffffffffffff8111156104ca576104c9610a27565b5b6040519080825280602002602001820160405280156104f85781602001602082028036833780820191505090505b506000908051906020019061050e92919061072d565b5060003373ffffffffffffffffffffffffffffffffffffffff164760405161053590610a87565b60006040518083038185875af1925050503d8060008114610572576040519150601f19603f3d011682016040523d82523d6000602084013e610577565b606091505b505090508061058557600080fd5b5050565b60007f0000000000000000000000000000000000000000000000000000000000000000905090565b6000600260009054906101000a900473ffffffffffffffffffffffffffffffffffffffff16905090565b6000600160008373ffffffffffffffffffffffffffffffffffffffff1673ffffffffffffffffffffffffffffffffffffffff168152602001908152602001600020549050919050565b6000808281548110610639576106386109f8565b5b9060005260206000200160009054906101000a900473ffffffffffffffffffffffffffffffffffffffff169050919050565b6000670de0b6b3a7640000836106808461069c565b61068a9190610a9c565b6106949190610b0d565b905092915050565b6000808273ffffffffffffffffffffffffffffffffffffffff1663feaf968c6040518163ffffffff1660e01b815260040160a060405180830381865afa1580156106ea573d6000803e3d6000fd5b505050506040513d601f19601f8201168201806040525081019061070e9190610bcb565b5050509150506402540be400816107259190610c46565b915050919050565b8280548282559060005260206000209081019282156107a6579160200282015b828111156107a55782518260006101000a81548173ffffffffffffffffffffffffffffffffffffffff021916908373ffffffffffffffffffffffffffffffffffffffff1602179055509160200191906001019061074d565b5b5090506107b391906107b7565b5090565b5b808211156107d05760008160009055506001016107b8565b5090565b6000819050919050565b6107e7816107d4565b82525050565b600060208201905061080260008301846107de565b92915050565b600073ffffffffffffffffffffffffffffffffffffffff82169050919050565b600061083382610808565b9050919050565b61084381610828565b82525050565b600060208201905061085e600083018461083a565b92915050565b6000819050919050565b600061088961088461087f84610808565b610864565b610808565b9050919050565b600061089b8261086e565b9050919050565b60006108ad82610890565b9050919050565b6108bd816108a2565b82525050565b60006020820190506108d860008301846108b4565b92915050565b600080fd5b6108ec81610828565b81146108f757600080fd5b50565b600081359050610909816108e3565b92915050565b600060208284031215610925576109246108de565b5b6000610933848285016108fa565b91505092915050565b610945816107d4565b811461095057600080fd5b50565b6000813590506109628161093c565b92915050565b60006020828403121561097e5761097d6108de565b5b600061098c84828501610953565b91505092915050565b7f4e487b7100000000000000000000000000000000000000000000000000000000600052601160045260246000fd5b60006109cf826107d4565b91506109da836107d4565b92508282019050808211156109f2576109f1610995565b5b92915050565b7f4e487b7100000000000000000000000000000000000000000000000000000000600052603260045260246000fd5b7f4e487b7100000000000000000000000000000000000000000000000000000000600052604160045260246000fd5b600081905092915050565b50565b6000610a71600083610a56565b9150610a7c82610a61565b600082019050919050565b6000610a9282610a64565b9150819050919050565b6000610aa7826107d4565b9150610ab2836107d4565b9250828202610ac0816107d4565b91508282048414831517610ad757610ad6610995565b5b5092915050565b7f4e487b7100000000000000000000000000000000000000000000000000000000600052601260045260246000fd5b6000610b18826107d4565b9150610b23836107d4565b925082610b3357610b32610ade565b5b828204905092915050565b600069ffffffffffffffffffff82169050919050565b610b5d81610b3e565b8114610b6857600080fd5b50565b600081519050610b7a81610b54565b92915050565b6000819050919050565b610b9381610b80565b8114610b9e57600080fd5b50565b600081519050610bb081610b8a565b92915050565b600081519050610bc58161093c565b92915050565b600080600080600060a08688031215610be757610be66108de565b5b6000610bf588828901610b6b565b9550506020610c0688828901610ba1565b9450506040610c1788828901610bb6565b9350506060610c2888828901610bb6565b9250506080610c3988828901610b6b565b9150509295509295909350565b6000610c5182610b80565b9150610c5c83610b80565b9250828202610c6a81610b80565b91507f80000000000000000000000000000000000000000000000000000000000000008414600084121615610ca257610ca1610995565b5b8282058414831517610cb757610cb6610995565b5b509291505056fea2646970667358221220fe01ba43dbe7283512e6f8200f3403bfc1dc92135e126cc643d112b68fc7cd0464736f6c63430008110033",
  "devdoc": {
    "author": "Chuong Thai",
    "details": "This implements price feeds as our library",
    "kind": "dev",
    "methods": {},
    "title": "A sample Funding Contract",
    "version": 1
  },
  "userdoc": {
    "kind": "user",
    "methods": {},
    "notice": "This contract is for creating a sample funding contract",
    "version": 1
  },
  "storageLayout": {
    "storage": [
      {
        "astId": 66,
        "contract": "contracts/FundMe.sol:FundMe",
        "label": "s_funders",
        "offset": 0,
        "slot": "0",
        "type": "t_array(t_address)dyn_storage"
      },
      {
        "astId": 70,
        "contract": "contracts/FundMe.sol:FundMe",
        "label": "s_addressToAmountFunded",
        "offset": 0,
        "slot": "1",
        "type": "t_mapping(t_address,t_uint256)"
      },
      {
        "astId": 73,
        "contract": "contracts/FundMe.sol:FundMe",
        "label": "s_priceFeed",
        "offset": 0,
        "slot": "2",
        "type": "t_contract(AggregatorV3Interface)45"
      }
    ],
    "types": {
      "t_address": {
        "encoding": "inplace",
        "label": "address",
        "numberOfBytes": "20"
      },
      "t_array(t_address)dyn_storage": {
        "base": "t_address",
        "encoding": "dynamic_array",
        "label": "address[]",
        "numberOfBytes": "32"
      },
      "t_contract(AggregatorV3Interface)45": {
        "encoding": "inplace",
        "label": "contract AggregatorV3Interface",
        "numberOfBytes": "20"
      },
      "t_mapping(t_address,t_uint256)": {
        "encoding": "mapping",
        "key": "t_address",
        "label": "mapping(address => uint256)",
        "numberOfBytes": "32",
        "value": "t_uint256"
      },
      "t_uint256": {
        "encoding": "inplace",
        "label": "uint256",
        "numberOfBytes": "32"
      }
    }
  }
}