{
  "address": "0xe7f1725E7734CE288F8367e1Bb143E90bb3F0512",
  "abi": [
    {
      "inputs": [
        {
          "internalType": "address",
          "name": "priceFeedAddress",
          "type": "address"
        }
      ],
      "stateMutability": "nonpayable",
      "type": "constructor"
    },
    {
      "stateMutability": "payable",
      "type": "fallback"
    },
    {
      "inputs": [],
      "name": "MINIMUN_USD",
      "outputs": [
        {
          "internalType": "uint256",
          "name": "",
          "type": "uint256"
        }
      ],
      "stateMutability": "view",
      "type": "function"
    },
    {
      "inputs": [],
      "name": "Withdraw",
      "outputs": [],
      "stateMutability": "nonpayable",
      "type": "function"
    },
    {
      "inputs": [
        {
          "internalType": "address",
          "name": "",
          "type": "address"
        }
      ],
      "name": "addressToAmountFunded",
      "outputs": [
        {
          "internalType": "uint256",
          "name": "",
          "type": "uint256"
        }
      ],
      "stateMutability": "view",
      "type": "function"
    },
    {
      "inputs": [],
      "name": "fund",
      "outputs": [],
      "stateMutability": "payable",
      "type": "function"
    },
    {
      "inputs": [
        {
          "internalType": "uint256",
          "name": "",
          "type": "uint256"
        }
      ],
      "name": "funders",
      "outputs": [
        {
          "internalType": "address",
          "name": "",
          "type": "address"
        }
      ],
      "stateMutability": "view",
      "type": "function"
    },
    {
      "inputs": [],
      "name": "i_owner",
      "outputs": [
        {
          "internalType": "address",
          "name": "",
          "type": "address"
        }
      ],
      "stateMutability": "view",
      "type": "function"
    },
    {
      "inputs": [],
      "name": "priceFeed",
      "outputs": [
        {
          "internalType": "contract AggregatorV3Interface",
          "name": "",
          "type": "address"
        }
      ],
      "stateMutability": "view",
      "type": "function"
    },
    {
      "stateMutability": "payable",
      "type": "receive"
    }
  ],
  "transactionHash": "0x1aeaaee86ce258ca905b28af1a3dd963fc2126e42581c35fabfda6bd7fe5afb2",
  "args": [
    "0x5FbDB2315678afecb367f032d93F642f64180aa3"
  ],
  "numDeployments": 1,
  "solcInputHash": "0f64d8c54009e6d4939c1c472af556b3",
  "bytecode": "0x60a060405234801561001057600080fd5b50604051610f4b380380610f4b83398181016040528101906100329190610110565b3373ffffffffffffffffffffffffffffffffffffffff1660808173ffffffffffffffffffffffffffffffffffffffff168152505080600260006101000a81548173ffffffffffffffffffffffffffffffffffffffff021916908373ffffffffffffffffffffffffffffffffffffffff1602179055505061013d565b600080fd5b600073ffffffffffffffffffffffffffffffffffffffff82169050919050565b60006100dd826100b2565b9050919050565b6100ed816100d2565b81146100f857600080fd5b50565b60008151905061010a816100e4565b92915050565b600060208284031215610126576101256100ad565b5b6000610134848285016100fb565b91505092915050565b608051610dec61015f6000396000818161034301526105ad0152610dec6000f3fe6080604052600436106100745760003560e01c8063741bef1a1161004e578063741bef1a1461010c578063b60d428814610137578063dba6335f14610141578063dc0d3dff1461016c57610083565b80632100f4791461008d5780633e47d6f3146100b857806357ea89b6146100f557610083565b36610083576100816101a9565b005b61008b6101a9565b005b34801561009957600080fd5b506100a261031c565b6040516100af9190610790565b60405180910390f35b3480156100c457600080fd5b506100df60048036038101906100da919061080e565b610329565b6040516100ec9190610790565b60405180910390f35b34801561010157600080fd5b5061010a610341565b005b34801561011857600080fd5b50610121610585565b60405161012e919061089a565b60405180910390f35b61013f6101a9565b005b34801561014d57600080fd5b506101566105ab565b60405161016391906108c4565b60405180910390f35b34801561017857600080fd5b50610193600480360381019061018e919061090b565b6105cf565b6040516101a091906108c4565b60405180910390f35b6802b5e3af16b18800006101e8600260009054906101000a900473ffffffffffffffffffffffffffffffffffffffff163461060e90919063ffffffff16565b1015610229576040517f08c379a000000000000000000000000000000000000000000000000000000000815260040161022090610995565b60405180910390fd5b6000339080600181540180825580915050600190039060005260206000200160009091909190916101000a81548173ffffffffffffffffffffffffffffffffffffffff021916908373ffffffffffffffffffffffffffffffffffffffff16021790555034600160003373ffffffffffffffffffffffffffffffffffffffff1673ffffffffffffffffffffffffffffffffffffffff168152602001908152602001600020546102d791906109e4565b600160003373ffffffffffffffffffffffffffffffffffffffff1673ffffffffffffffffffffffffffffffffffffffff16815260200190815260200160002081905550565b6802b5e3af16b188000081565b60016020528060005260406000206000915090505481565b7f000000000000000000000000000000000000000000000000000000000000000073ffffffffffffffffffffffffffffffffffffffff163373ffffffffffffffffffffffffffffffffffffffff16146103cf576040517f08c379a00000000000000000000000000000000000000000000000000000000081526004016103c690610a64565b60405180910390fd5b60005b600080549050811015610475576000600160008084815481106103f8576103f7610a84565b5b9060005260206000200160009054906101000a900473ffffffffffffffffffffffffffffffffffffffff1673ffffffffffffffffffffffffffffffffffffffff1673ffffffffffffffffffffffffffffffffffffffff1681526020019081526020016000208190555060018161046e91906109e4565b90506103d2565b50600067ffffffffffffffff81111561049157610490610ab3565b5b6040519080825280602002602001820160405280156104bf5781602001602082028036833780820191505090505b50600090805190602001906104d59291906106d0565b5060003373ffffffffffffffffffffffffffffffffffffffff16476040516104fc90610b13565b60006040518083038185875af1925050503d8060008114610539576040519150601f19603f3d011682016040523d82523d6000602084013e61053e565b606091505b5050905080610582576040517f08c379a000000000000000000000000000000000000000000000000000000000815260040161057990610b74565b60405180910390fd5b50565b600260009054906101000a900473ffffffffffffffffffffffffffffffffffffffff1681565b7f000000000000000000000000000000000000000000000000000000000000000081565b600081815481106105df57600080fd5b906000526020600020016000915054906101000a900473ffffffffffffffffffffffffffffffffffffffff1681565b6000670de0b6b3a7640000836106238461063f565b61062d9190610b94565b6106379190610c05565b905092915050565b6000808273ffffffffffffffffffffffffffffffffffffffff1663feaf968c6040518163ffffffff1660e01b815260040160a060405180830381865afa15801561068d573d6000803e3d6000fd5b505050506040513d601f19601f820116820180604052508101906106b19190610cc3565b5050509150506402540be400816106c89190610d3e565b915050919050565b828054828255906000526020600020908101928215610749579160200282015b828111156107485782518260006101000a81548173ffffffffffffffffffffffffffffffffffffffff021916908373ffffffffffffffffffffffffffffffffffffffff160217905550916020019190600101906106f0565b5b509050610756919061075a565b5090565b5b8082111561077357600081600090555060010161075b565b5090565b6000819050919050565b61078a81610777565b82525050565b60006020820190506107a56000830184610781565b92915050565b600080fd5b600073ffffffffffffffffffffffffffffffffffffffff82169050919050565b60006107db826107b0565b9050919050565b6107eb816107d0565b81146107f657600080fd5b50565b600081359050610808816107e2565b92915050565b600060208284031215610824576108236107ab565b5b6000610832848285016107f9565b91505092915050565b6000819050919050565b600061086061085b610856846107b0565b61083b565b6107b0565b9050919050565b600061087282610845565b9050919050565b600061088482610867565b9050919050565b61089481610879565b82525050565b60006020820190506108af600083018461088b565b92915050565b6108be816107d0565b82525050565b60006020820190506108d960008301846108b5565b92915050565b6108e881610777565b81146108f357600080fd5b50565b600081359050610905816108df565b92915050565b600060208284031215610921576109206107ab565b5b600061092f848285016108f6565b91505092915050565b600082825260208201905092915050565b7f42652067656e65726f7573210000000000000000000000000000000000000000600082015250565b600061097f600c83610938565b915061098a82610949565b602082019050919050565b600060208201905081810360008301526109ae81610972565b9050919050565b7f4e487b7100000000000000000000000000000000000000000000000000000000600052601160045260246000fd5b60006109ef82610777565b91506109fa83610777565b9250828201905080821115610a1257610a116109b5565b5b92915050565b7f4f6e6c79206f776e65722063616e207769746864726177210000000000000000600082015250565b6000610a4e601883610938565b9150610a5982610a18565b602082019050919050565b60006020820190508181036000830152610a7d81610a41565b9050919050565b7f4e487b7100000000000000000000000000000000000000000000000000000000600052603260045260246000fd5b7f4e487b7100000000000000000000000000000000000000000000000000000000600052604160045260246000fd5b600081905092915050565b50565b6000610afd600083610ae2565b9150610b0882610aed565b600082019050919050565b6000610b1e82610af0565b9150819050919050565b7f43616c6c206661696c6564000000000000000000000000000000000000000000600082015250565b6000610b5e600b83610938565b9150610b6982610b28565b602082019050919050565b60006020820190508181036000830152610b8d81610b51565b9050919050565b6000610b9f82610777565b9150610baa83610777565b9250828202610bb881610777565b91508282048414831517610bcf57610bce6109b5565b5b5092915050565b7f4e487b7100000000000000000000000000000000000000000000000000000000600052601260045260246000fd5b6000610c1082610777565b9150610c1b83610777565b925082610c2b57610c2a610bd6565b5b828204905092915050565b600069ffffffffffffffffffff82169050919050565b610c5581610c36565b8114610c6057600080fd5b50565b600081519050610c7281610c4c565b92915050565b6000819050919050565b610c8b81610c78565b8114610c9657600080fd5b50565b600081519050610ca881610c82565b92915050565b600081519050610cbd816108df565b92915050565b600080600080600060a08688031215610cdf57610cde6107ab565b5b6000610ced88828901610c63565b9550506020610cfe88828901610c99565b9450506040610d0f88828901610cae565b9350506060610d2088828901610cae565b9250506080610d3188828901610c63565b9150509295509295909350565b6000610d4982610c78565b9150610d5483610c78565b9250828202610d6281610c78565b91507f80000000000000000000000000000000000000000000000000000000000000008414600084121615610d9a57610d996109b5565b5b8282058414831517610daf57610dae6109b5565b5b509291505056fea2646970667358221220e70c53dc04057e3b7659a702658040581cb046b53154fe8e88936a8a14971ac064736f6c63430008110033",
  "devdoc": {
    "kind": "dev",
    "methods": {},
    "version": 1
  },
  "userdoc": {
    "kind": "user",
    "methods": {},
    "version": 1
  },
  "storageLayout": {
    "storage": [
      {
        "astId": 61,
        "contract": "contracts/FundMe.sol:FundMe",
        "label": "funders",
        "offset": 0,
        "slot": "0",
        "type": "t_array(t_address)dyn_storage"
      },
      {
        "astId": 65,
        "contract": "contracts/FundMe.sol:FundMe",
        "label": "addressToAmountFunded",
        "offset": 0,
        "slot": "1",
        "type": "t_mapping(t_address,t_uint256)"
      },
      {
        "astId": 68,
        "contract": "contracts/FundMe.sol:FundMe",
        "label": "priceFeed",
        "offset": 0,
        "slot": "2",
        "type": "t_contract(AggregatorV3Interface)45"
      }
    ],
    "types": {
      "t_address": {
        "encoding": "inplace",
        "label": "address",
        "numberOfBytes": "20"
      },
      "t_array(t_address)dyn_storage": {
        "base": "t_address",
        "encoding": "dynamic_array",
        "label": "address[]",
        "numberOfBytes": "32"
      },
      "t_contract(AggregatorV3Interface)45": {
        "encoding": "inplace",
        "label": "contract AggregatorV3Interface",
        "numberOfBytes": "20"
      },
      "t_mapping(t_address,t_uint256)": {
        "encoding": "mapping",
        "key": "t_address",
        "label": "mapping(address => uint256)",
        "numberOfBytes": "32",
        "value": "t_uint256"
      },
      "t_uint256": {
        "encoding": "inplace",
        "label": "uint256",
        "numberOfBytes": "32"
      }
    }
  }
}