{
  "address": "0xe7f1725E7734CE288F8367e1Bb143E90bb3F0512",
  "abi": [
    {
      "inputs": [
        {
          "internalType": "address",
          "name": "priceFeedAddress",
          "type": "address"
        }
      ],
      "stateMutability": "nonpayable",
      "type": "constructor"
    },
    {
      "inputs": [],
      "name": "FundMe__NotOwner",
      "type": "error"
    },
    {
      "stateMutability": "payable",
      "type": "fallback"
    },
    {
      "inputs": [],
      "name": "MINIMUN_USD",
      "outputs": [
        {
          "internalType": "uint256",
          "name": "",
          "type": "uint256"
        }
      ],
      "stateMutability": "view",
      "type": "function"
    },
    {
      "inputs": [],
      "name": "Withdraw",
      "outputs": [],
      "stateMutability": "nonpayable",
      "type": "function"
    },
    {
      "inputs": [
        {
          "internalType": "address",
          "name": "",
          "type": "address"
        }
      ],
      "name": "addressToAmountFunded",
      "outputs": [
        {
          "internalType": "uint256",
          "name": "",
          "type": "uint256"
        }
      ],
      "stateMutability": "view",
      "type": "function"
    },
    {
      "inputs": [],
      "name": "fund",
      "outputs": [],
      "stateMutability": "payable",
      "type": "function"
    },
    {
      "inputs": [
        {
          "internalType": "uint256",
          "name": "",
          "type": "uint256"
        }
      ],
      "name": "funders",
      "outputs": [
        {
          "internalType": "address",
          "name": "",
          "type": "address"
        }
      ],
      "stateMutability": "view",
      "type": "function"
    },
    {
      "inputs": [],
      "name": "i_owner",
      "outputs": [
        {
          "internalType": "address",
          "name": "",
          "type": "address"
        }
      ],
      "stateMutability": "view",
      "type": "function"
    },
    {
      "inputs": [],
      "name": "priceFeed",
      "outputs": [
        {
          "internalType": "contract AggregatorV3Interface",
          "name": "",
          "type": "address"
        }
      ],
      "stateMutability": "view",
      "type": "function"
    },
    {
      "stateMutability": "payable",
      "type": "receive"
    }
  ],
  "transactionHash": "0xb7714e6da903a185be8769abc814f7ca4c3928c758301eedf69da72f82f14360",
  "args": [
    "0x5FbDB2315678afecb367f032d93F642f64180aa3"
  ],
  "numDeployments": 1,
  "solcInputHash": "18e8a378c1f0cd6663ad60d94f76517e",
  "bytecode": "0x60a060405234801561001057600080fd5b50604051610ed6380380610ed683398181016040528101906100329190610110565b3373ffffffffffffffffffffffffffffffffffffffff1660808173ffffffffffffffffffffffffffffffffffffffff168152505080600260006101000a81548173ffffffffffffffffffffffffffffffffffffffff021916908373ffffffffffffffffffffffffffffffffffffffff1602179055505061013d565b600080fd5b600073ffffffffffffffffffffffffffffffffffffffff82169050919050565b60006100dd826100b2565b9050919050565b6100ed816100d2565b81146100f857600080fd5b50565b60008151905061010a816100e4565b92915050565b600060208284031215610126576101256100ad565b5b6000610134848285016100fb565b91505092915050565b608051610d7761015f6000396000818161034301526105a40152610d776000f3fe6080604052600436106100745760003560e01c8063741bef1a1161004e578063741bef1a1461010c578063b60d428814610137578063dba6335f14610141578063dc0d3dff1461016c57610083565b80632100f4791461008d5780633e47d6f3146100b857806357ea89b6146100f557610083565b36610083576100816101a9565b005b61008b6101a9565b005b34801561009957600080fd5b506100a261031c565b6040516100af9190610787565b60405180910390f35b3480156100c457600080fd5b506100df60048036038101906100da9190610805565b610329565b6040516100ec9190610787565b60405180910390f35b34801561010157600080fd5b5061010a610341565b005b34801561011857600080fd5b5061012161057c565b60405161012e9190610891565b60405180910390f35b61013f6101a9565b005b34801561014d57600080fd5b506101566105a2565b60405161016391906108bb565b60405180910390f35b34801561017857600080fd5b50610193600480360381019061018e9190610902565b6105c6565b6040516101a091906108bb565b60405180910390f35b6802b5e3af16b18800006101e8600260009054906101000a900473ffffffffffffffffffffffffffffffffffffffff163461060590919063ffffffff16565b1015610229576040517f08c379a00000000000000000000000000000000000000000000000000000000081526004016102209061098c565b60405180910390fd5b6000339080600181540180825580915050600190039060005260206000200160009091909190916101000a81548173ffffffffffffffffffffffffffffffffffffffff021916908373ffffffffffffffffffffffffffffffffffffffff16021790555034600160003373ffffffffffffffffffffffffffffffffffffffff1673ffffffffffffffffffffffffffffffffffffffff168152602001908152602001600020546102d791906109db565b600160003373ffffffffffffffffffffffffffffffffffffffff1673ffffffffffffffffffffffffffffffffffffffff16815260200190815260200160002081905550565b6802b5e3af16b188000081565b60016020528060005260406000206000915090505481565b7f000000000000000000000000000000000000000000000000000000000000000073ffffffffffffffffffffffffffffffffffffffff163373ffffffffffffffffffffffffffffffffffffffff16146103c6576040517f579610db00000000000000000000000000000000000000000000000000000000815260040160405180910390fd5b60005b60008054905081101561046c576000600160008084815481106103ef576103ee610a0f565b5b9060005260206000200160009054906101000a900473ffffffffffffffffffffffffffffffffffffffff1673ffffffffffffffffffffffffffffffffffffffff1673ffffffffffffffffffffffffffffffffffffffff1681526020019081526020016000208190555060018161046591906109db565b90506103c9565b50600067ffffffffffffffff81111561048857610487610a3e565b5b6040519080825280602002602001820160405280156104b65781602001602082028036833780820191505090505b50600090805190602001906104cc9291906106c7565b5060003373ffffffffffffffffffffffffffffffffffffffff16476040516104f390610a9e565b60006040518083038185875af1925050503d8060008114610530576040519150601f19603f3d011682016040523d82523d6000602084013e610535565b606091505b5050905080610579576040517f08c379a000000000000000000000000000000000000000000000000000000000815260040161057090610aff565b60405180910390fd5b50565b600260009054906101000a900473ffffffffffffffffffffffffffffffffffffffff1681565b7f000000000000000000000000000000000000000000000000000000000000000081565b600081815481106105d657600080fd5b906000526020600020016000915054906101000a900473ffffffffffffffffffffffffffffffffffffffff1681565b6000670de0b6b3a76400008361061a84610636565b6106249190610b1f565b61062e9190610b90565b905092915050565b6000808273ffffffffffffffffffffffffffffffffffffffff1663feaf968c6040518163ffffffff1660e01b815260040160a060405180830381865afa158015610684573d6000803e3d6000fd5b505050506040513d601f19601f820116820180604052508101906106a89190610c4e565b5050509150506402540be400816106bf9190610cc9565b915050919050565b828054828255906000526020600020908101928215610740579160200282015b8281111561073f5782518260006101000a81548173ffffffffffffffffffffffffffffffffffffffff021916908373ffffffffffffffffffffffffffffffffffffffff160217905550916020019190600101906106e7565b5b50905061074d9190610751565b5090565b5b8082111561076a576000816000905550600101610752565b5090565b6000819050919050565b6107818161076e565b82525050565b600060208201905061079c6000830184610778565b92915050565b600080fd5b600073ffffffffffffffffffffffffffffffffffffffff82169050919050565b60006107d2826107a7565b9050919050565b6107e2816107c7565b81146107ed57600080fd5b50565b6000813590506107ff816107d9565b92915050565b60006020828403121561081b5761081a6107a2565b5b6000610829848285016107f0565b91505092915050565b6000819050919050565b600061085761085261084d846107a7565b610832565b6107a7565b9050919050565b60006108698261083c565b9050919050565b600061087b8261085e565b9050919050565b61088b81610870565b82525050565b60006020820190506108a66000830184610882565b92915050565b6108b5816107c7565b82525050565b60006020820190506108d060008301846108ac565b92915050565b6108df8161076e565b81146108ea57600080fd5b50565b6000813590506108fc816108d6565b92915050565b600060208284031215610918576109176107a2565b5b6000610926848285016108ed565b91505092915050565b600082825260208201905092915050565b7f42652067656e65726f7573210000000000000000000000000000000000000000600082015250565b6000610976600c8361092f565b915061098182610940565b602082019050919050565b600060208201905081810360008301526109a581610969565b9050919050565b7f4e487b7100000000000000000000000000000000000000000000000000000000600052601160045260246000fd5b60006109e68261076e565b91506109f18361076e565b9250828201905080821115610a0957610a086109ac565b5b92915050565b7f4e487b7100000000000000000000000000000000000000000000000000000000600052603260045260246000fd5b7f4e487b7100000000000000000000000000000000000000000000000000000000600052604160045260246000fd5b600081905092915050565b50565b6000610a88600083610a6d565b9150610a9382610a78565b600082019050919050565b6000610aa982610a7b565b9150819050919050565b7f43616c6c206661696c6564000000000000000000000000000000000000000000600082015250565b6000610ae9600b8361092f565b9150610af482610ab3565b602082019050919050565b60006020820190508181036000830152610b1881610adc565b9050919050565b6000610b2a8261076e565b9150610b358361076e565b9250828202610b438161076e565b91508282048414831517610b5a57610b596109ac565b5b5092915050565b7f4e487b7100000000000000000000000000000000000000000000000000000000600052601260045260246000fd5b6000610b9b8261076e565b9150610ba68361076e565b925082610bb657610bb5610b61565b5b828204905092915050565b600069ffffffffffffffffffff82169050919050565b610be081610bc1565b8114610beb57600080fd5b50565b600081519050610bfd81610bd7565b92915050565b6000819050919050565b610c1681610c03565b8114610c2157600080fd5b50565b600081519050610c3381610c0d565b92915050565b600081519050610c48816108d6565b92915050565b600080600080600060a08688031215610c6a57610c696107a2565b5b6000610c7888828901610bee565b9550506020610c8988828901610c24565b9450506040610c9a88828901610c39565b9350506060610cab88828901610c39565b9250506080610cbc88828901610bee565b9150509295509295909350565b6000610cd482610c03565b9150610cdf83610c03565b9250828202610ced81610c03565b91507f80000000000000000000000000000000000000000000000000000000000000008414600084121615610d2557610d246109ac565b5b8282058414831517610d3a57610d396109ac565b5b509291505056fea264697066735822122079c170004f1e66f914e57fe0072bf70c40ecfce4e2a09177d3f7b3517cfd4ba664736f6c63430008110033",
  "devdoc": {
    "author": "Chuong Thai",
    "details": "This implements price feeds as our library",
    "kind": "dev",
    "methods": {},
    "title": "A sample Funding Contract",
    "version": 1
  },
  "userdoc": {
    "kind": "user",
    "methods": {},
    "notice": "This contract is for creating a sample funding contract",
    "version": 1
  },
  "storageLayout": {
    "storage": [
      {
        "astId": 64,
        "contract": "contracts/FundMe.sol:FundMe",
        "label": "funders",
        "offset": 0,
        "slot": "0",
        "type": "t_array(t_address)dyn_storage"
      },
      {
        "astId": 68,
        "contract": "contracts/FundMe.sol:FundMe",
        "label": "addressToAmountFunded",
        "offset": 0,
        "slot": "1",
        "type": "t_mapping(t_address,t_uint256)"
      },
      {
        "astId": 71,
        "contract": "contracts/FundMe.sol:FundMe",
        "label": "priceFeed",
        "offset": 0,
        "slot": "2",
        "type": "t_contract(AggregatorV3Interface)45"
      }
    ],
    "types": {
      "t_address": {
        "encoding": "inplace",
        "label": "address",
        "numberOfBytes": "20"
      },
      "t_array(t_address)dyn_storage": {
        "base": "t_address",
        "encoding": "dynamic_array",
        "label": "address[]",
        "numberOfBytes": "32"
      },
      "t_contract(AggregatorV3Interface)45": {
        "encoding": "inplace",
        "label": "contract AggregatorV3Interface",
        "numberOfBytes": "20"
      },
      "t_mapping(t_address,t_uint256)": {
        "encoding": "mapping",
        "key": "t_address",
        "label": "mapping(address => uint256)",
        "numberOfBytes": "32",
        "value": "t_uint256"
      },
      "t_uint256": {
        "encoding": "inplace",
        "label": "uint256",
        "numberOfBytes": "32"
      }
    }
  }
}